{"abi":[{"type":"constructor","inputs":[{"name":"_token","type":"address","internalType":"address"}],"stateMutability":"nonpayable"},{"type":"function","name":"admin","inputs":[],"outputs":[{"name":"","type":"address","internalType":"address"}],"stateMutability":"view"},{"type":"function","name":"reward","inputs":[{"name":"user","type":"address","internalType":"address"}],"outputs":[],"stateMutability":"nonpayable"},{"type":"function","name":"stake","inputs":[],"outputs":[],"stateMutability":"nonpayable"},{"type":"function","name":"stakeAmount","inputs":[],"outputs":[{"name":"","type":"uint256","internalType":"uint256"}],"stateMutability":"view"},{"type":"function","name":"token","inputs":[],"outputs":[{"name":"","type":"address","internalType":"contract InterviewToken"}],"stateMutability":"view"}],"bytecode":{"object":"0x6080604052671bc16d674ec8000060025534801561001b575f5ffd5b50604051610663380380610663833981810160405281019061003d9190610120565b805f5f6101000a81548173ffffffffffffffffffffffffffffffffffffffff021916908373ffffffffffffffffffffffffffffffffffffffff1602179055503360015f6101000a81548173ffffffffffffffffffffffffffffffffffffffff021916908373ffffffffffffffffffffffffffffffffffffffff1602179055505061014b565b5f5ffd5b5f73ffffffffffffffffffffffffffffffffffffffff82169050919050565b5f6100ef826100c6565b9050919050565b6100ff816100e5565b8114610109575f5ffd5b50565b5f8151905061011a816100f6565b92915050565b5f60208284031215610135576101346100c2565b5b5f6101428482850161010c565b91505092915050565b61050b806101585f395ff3fe608060405234801561000f575f5ffd5b5060043610610055575f3560e01c80633a4b66f11461005957806360c7dc47146100635780636353586b14610081578063f851a4401461009d578063fc0c546a146100bb575b5f5ffd5b6100616100d9565b005b61006b61017b565b60405161007891906102db565b60405180910390f35b61009b60048036038101906100969190610352565b610181565b005b6100a561027a565b6040516100b2919061038c565b60405180910390f35b6100c361029f565b6040516100d09190610400565b60405180910390f35b5f5f9054906101000a900473ffffffffffffffffffffffffffffffffffffffff1673ffffffffffffffffffffffffffffffffffffffff166323b872dd33306002546040518463ffffffff1660e01b815260040161013893929190610419565b6020604051808303815f875af1158015610154573d5f5f3e3d5ffd5b505050506040513d601f19601f820116820180604052508101906101789190610483565b50565b60025481565b60015f9054906101000a900473ffffffffffffffffffffffffffffffffffffffff1673ffffffffffffffffffffffffffffffffffffffff163373ffffffffffffffffffffffffffffffffffffffff16146101d9575f5ffd5b5f5f9054906101000a900473ffffffffffffffffffffffffffffffffffffffff1673ffffffffffffffffffffffffffffffffffffffff1663a9059cbb826002546040518363ffffffff1660e01b81526004016102369291906104ae565b6020604051808303815f875af1158015610252573d5f5f3e3d5ffd5b505050506040513d601f19601f820116820180604052508101906102769190610483565b5050565b60015f9054906101000a900473ffffffffffffffffffffffffffffffffffffffff1681565b5f5f9054906101000a900473ffffffffffffffffffffffffffffffffffffffff1681565b5f819050919050565b6102d5816102c3565b82525050565b5f6020820190506102ee5f8301846102cc565b92915050565b5f5ffd5b5f73ffffffffffffffffffffffffffffffffffffffff82169050919050565b5f610321826102f8565b9050919050565b61033181610317565b811461033b575f5ffd5b50565b5f8135905061034c81610328565b92915050565b5f60208284031215610367576103666102f4565b5b5f6103748482850161033e565b91505092915050565b61038681610317565b82525050565b5f60208201905061039f5f83018461037d565b92915050565b5f819050919050565b5f6103c86103c36103be846102f8565b6103a5565b6102f8565b9050919050565b5f6103d9826103ae565b9050919050565b5f6103ea826103cf565b9050919050565b6103fa816103e0565b82525050565b5f6020820190506104135f8301846103f1565b92915050565b5f60608201905061042c5f83018661037d565b610439602083018561037d565b61044660408301846102cc565b949350505050565b5f8115159050919050565b6104628161044e565b811461046c575f5ffd5b50565b5f8151905061047d81610459565b92915050565b5f60208284031215610498576104976102f4565b5b5f6104a58482850161046f565b91505092915050565b5f6040820190506104c15f83018561037d565b6104ce60208301846102cc565b939250505056fea2646970667358221220e40caf183be91c293de83745677187d373f917853de2ca095fcc6652e78260fa64736f6c63430008210033","linkReferences":{}},"methodIdentifiers":{"admin()":"f851a440","reward(address)":"6353586b","stake()":"3a4b66f1","stakeAmount()":"60c7dc47","token()":"fc0c546a"},"id":22}