{"abi":[{"type":"constructor","inputs":[{"name":"_token","type":"address","internalType":"address"}],"stateMutability":"nonpayable"},{"type":"function","name":"admin","inputs":[],"outputs":[{"name":"","type":"address","internalType":"address"}],"stateMutability":"view"},{"type":"function","name":"reward","inputs":[{"name":"user","type":"address","internalType":"address"}],"outputs":[],"stateMutability":"nonpayable"},{"type":"function","name":"slash","inputs":[{"name":"user","type":"address","internalType":"address"}],"outputs":[],"stateMutability":"nonpayable"},{"type":"function","name":"stake","inputs":[],"outputs":[],"stateMutability":"nonpayable"},{"type":"function","name":"stakeAmount","inputs":[],"outputs":[{"name":"","type":"uint256","internalType":"uint256"}],"stateMutability":"view"},{"type":"function","name":"token","inputs":[],"outputs":[{"name":"","type":"address","internalType":"contract InterviewToken"}],"stateMutability":"view"},{"type":"function","name":"userStakes","inputs":[{"name":"","type":"address","internalType":"address"}],"outputs":[{"name":"","type":"uint256","internalType":"uint256"}],"stateMutability":"view"}],"bytecode":{"object":"0x60806040526706f05b59d3b2000060025534801561001b575f5ffd5b50604051610bf7380380610bf7833981810160405281019061003d9190610120565b805f5f6101000a81548173ffffffffffffffffffffffffffffffffffffffff021916908373ffffffffffffffffffffffffffffffffffffffff1602179055503360015f6101000a81548173ffffffffffffffffffffffffffffffffffffffff021916908373ffffffffffffffffffffffffffffffffffffffff1602179055505061014b565b5f5ffd5b5f73ffffffffffffffffffffffffffffffffffffffff82169050919050565b5f6100ef826100c6565b9050919050565b6100ff816100e5565b8114610109575f5ffd5b50565b5f8151905061011a816100f6565b92915050565b5f60208284031215610135576101346100c2565b5b5f6101428482850161010c565b91505092915050565b610a9f806101585f395ff3fe608060405234801561000f575f5ffd5b506004361061007b575f3560e01c80638da7ad23116100595780638da7ad23146100c3578063c96be4cb146100f3578063f851a4401461010f578063fc0c546a1461012d5761007b565b80633a4b66f11461007f57806360c7dc47146100895780636353586b146100a7575b5f5ffd5b61008761014b565b005b610091610242565b60405161009e91906106c7565b60405180910390f35b6100c160048036038101906100bc919061073e565b610248565b005b6100dd60048036038101906100d8919061073e565b61043c565b6040516100ea91906106c7565b60405180910390f35b61010d6004803603810190610108919061073e565b610451565b005b610117610666565b6040516101249190610778565b60405180910390f35b61013561068b565b60405161014291906107ec565b60405180910390f35b5f5f9054906101000a900473ffffffffffffffffffffffffffffffffffffffff1673ffffffffffffffffffffffffffffffffffffffff166323b872dd33306002546040518463ffffffff1660e01b81526004016101aa93929190610805565b6020604051808303815f875af11580156101c6573d5f5f3e3d5ffd5b505050506040513d601f19601f820116820180604052508101906101ea919061086f565b5060025460035f3373ffffffffffffffffffffffffffffffffffffffff1673ffffffffffffffffffffffffffffffffffffffff1681526020019081526020015f205f82825461023991906108c7565b92505081905550565b60025481565b60015f9054906101000a900473ffffffffffffffffffffffffffffffffffffffff1673ffffffffffffffffffffffffffffffffffffffff163373ffffffffffffffffffffffffffffffffffffffff16146102d7576040517f08c379a00000000000000000000000000000000000000000000000000000000081526004016102ce90610954565b60405180910390fd5b5f60035f8373ffffffffffffffffffffffffffffffffffffffff1673ffffffffffffffffffffffffffffffffffffffff1681526020019081526020015f205490505f811161035a576040517f08c379a0000000000000000000000000000000000000000000000000000000008152600401610351906109bc565b60405180910390fd5b5f60035f8473ffffffffffffffffffffffffffffffffffffffff1673ffffffffffffffffffffffffffffffffffffffff1681526020019081526020015f20819055505f5f9054906101000a900473ffffffffffffffffffffffffffffffffffffffff1673ffffffffffffffffffffffffffffffffffffffff1663a9059cbb83836040518363ffffffff1660e01b81526004016103f79291906109da565b6020604051808303815f875af1158015610413573d5f5f3e3d5ffd5b505050506040513d601f19601f82011682018060405250810190610437919061086f565b505050565b6003602052805f5260405f205f915090505481565b60015f9054906101000a900473ffffffffffffffffffffffffffffffffffffffff1673ffffffffffffffffffffffffffffffffffffffff163373ffffffffffffffffffffffffffffffffffffffff16146104e0576040517f08c379a00000000000000000000000000000000000000000000000000000000081526004016104d790610a4b565b60405180910390fd5b5f60035f8373ffffffffffffffffffffffffffffffffffffffff1673ffffffffffffffffffffffffffffffffffffffff1681526020019081526020015f205490505f8111610563576040517f08c379a000000000000000000000000000000000000000000000000000000000815260040161055a906109bc565b60405180910390fd5b5f60035f8473ffffffffffffffffffffffffffffffffffffffff1673ffffffffffffffffffffffffffffffffffffffff1681526020019081526020015f20819055505f5f9054906101000a900473ffffffffffffffffffffffffffffffffffffffff1673ffffffffffffffffffffffffffffffffffffffff1663a9059cbb60015f9054906101000a900473ffffffffffffffffffffffffffffffffffffffff16836040518363ffffffff1660e01b81526004016106219291906109da565b6020604051808303815f875af115801561063d573d5f5f3e3d5ffd5b505050506040513d601f19601f82011682018060405250810190610661919061086f565b505050565b60015f9054906101000a900473ffffffffffffffffffffffffffffffffffffffff1681565b5f5f9054906101000a900473ffffffffffffffffffffffffffffffffffffffff1681565b5f819050919050565b6106c1816106af565b82525050565b5f6020820190506106da5f8301846106b8565b92915050565b5f5ffd5b5f73ffffffffffffffffffffffffffffffffffffffff82169050919050565b5f61070d826106e4565b9050919050565b61071d81610703565b8114610727575f5ffd5b50565b5f8135905061073881610714565b92915050565b5f60208284031215610753576107526106e0565b5b5f6107608482850161072a565b91505092915050565b61077281610703565b82525050565b5f60208201905061078b5f830184610769565b92915050565b5f819050919050565b5f6107b46107af6107aa846106e4565b610791565b6106e4565b9050919050565b5f6107c58261079a565b9050919050565b5f6107d6826107bb565b9050919050565b6107e6816107cc565b82525050565b5f6020820190506107ff5f8301846107dd565b92915050565b5f6060820190506108185f830186610769565b6108256020830185610769565b61083260408301846106b8565b949350505050565b5f8115159050919050565b61084e8161083a565b8114610858575f5ffd5b50565b5f8151905061086981610845565b92915050565b5f60208284031215610884576108836106e0565b5b5f6108918482850161085b565b91505092915050565b7f4e487b71000000000000000000000000000000000000000000000000000000005f52601160045260245ffd5b5f6108d1826106af565b91506108dc836106af565b92508282019050808211156108f4576108f361089a565b5b92915050565b5f82825260208201905092915050565b7f4f6e6c792061646d696e2063616e2072657761726400000000000000000000005f82015250565b5f61093e6015836108fa565b91506109498261090a565b602082019050919050565b5f6020820190508181035f83015261096b81610932565b9050919050565b7f4e6f207374616b6520666f756e640000000000000000000000000000000000005f82015250565b5f6109a6600e836108fa565b91506109b182610972565b602082019050919050565b5f6020820190508181035f8301526109d38161099a565b9050919050565b5f6040820190506109ed5f830185610769565b6109fa60208301846106b8565b9392505050565b7f4f6e6c792061646d696e2063616e20736c6173680000000000000000000000005f82015250565b5f610a356014836108fa565b9150610a4082610a01565b602082019050919050565b5f6020820190508181035f830152610a6281610a29565b905091905056fea264697066735822122060cf3ebd4a28c6d036e29788298bddddf664fc5ebea6ef9c14578e3c713f84ee64736f6c63430008210033","linkReferences":{}},"methodIdentifiers":{"admin()":"f851a440","reward(address)":"6353586b","slash(address)":"c96be4cb","stake()":"3a4b66f1","stakeAmount()":"60c7dc47","token()":"fc0c546a","userStakes(address)":"8da7ad23"},"id":28}